{
  "contractName": "ChainlinkGovernance",
  "abi": [
    {
      "inputs": [],
      "stateMutability": "nonpayable",
      "type": "constructor"
    },
    {
      "inputs": [],
      "name": "Lottery",
      "outputs": [
        {
          "internalType": "address",
          "name": "",
          "type": "address"
        }
      ],
      "stateMutability": "view",
      "type": "function"
    },
    {
      "inputs": [],
      "name": "once",
      "outputs": [
        {
          "internalType": "uint256",
          "name": "",
          "type": "uint256"
        }
      ],
      "stateMutability": "view",
      "type": "function"
    },
    {
      "inputs": [],
      "name": "randomness",
      "outputs": [
        {
          "internalType": "address",
          "name": "",
          "type": "address"
        }
      ],
      "stateMutability": "view",
      "type": "function"
    },
    {
      "inputs": [
        {
          "internalType": "address",
          "name": "_lottery",
          "type": "address"
        },
        {
          "internalType": "address",
          "name": "_randomness",
          "type": "address"
        }
      ],
      "name": "init",
      "outputs": [],
      "stateMutability": "nonpayable",
      "type": "function"
    }
  ],
  "bytecode": "0x608060405234801561001057600080fd5b506001600081905550610303806100286000396000f3fe608060405234801561001057600080fd5b506004361061004c5760003560e01c8063292a3f7e14610051578063360131891461006f5780634245b0f7146100b9578063f09a401614610103575b600080fd5b610059610167565b6040518082815260200191505060405180910390f35b61007761016d565b604051808273ffffffffffffffffffffffffffffffffffffffff1673ffffffffffffffffffffffffffffffffffffffff16815260200191505060405180910390f35b6100c1610193565b604051808273ffffffffffffffffffffffffffffffffffffffff1673ffffffffffffffffffffffffffffffffffffffff16815260200191505060405180910390f35b6101656004803603604081101561011957600080fd5b81019080803573ffffffffffffffffffffffffffffffffffffffff169060200190929190803573ffffffffffffffffffffffffffffffffffffffff1690602001909291905050506101b9565b005b60005481565b600260009054906101000a900473ffffffffffffffffffffffffffffffffffffffff1681565b600160009054906101000a900473ffffffffffffffffffffffffffffffffffffffff1681565b600073ffffffffffffffffffffffffffffffffffffffff168173ffffffffffffffffffffffffffffffffffffffff1614156101f357600080fd5b600073ffffffffffffffffffffffffffffffffffffffff168273ffffffffffffffffffffffffffffffffffffffff16141561022d57600080fd5b600080541161023b57600080fd5b60016000540360008190555080600260006101000a81548173ffffffffffffffffffffffffffffffffffffffff021916908373ffffffffffffffffffffffffffffffffffffffff16021790555081600160006101000a81548173ffffffffffffffffffffffffffffffffffffffff021916908373ffffffffffffffffffffffffffffffffffffffff160217905550505056fea2646970667358221220139961905a53e7ad5dd41651d3908da71a316258ba008b815d876564dab2d29d64736f6c63430006060033",
  "immutableReferences": {},
  "source": "//This is for Educational Purposes Only\r\npragma solidity ^0.6.6;\r\n\r\n//Everytime a lottery is done,ChainlinkGovernance contract ensures that random numbers are generated only once per lottery\r\ncontract ChainlinkGovernance {\r\n    \r\n    //Variable to make sure that ChainlinkGovernance will only be called once\r\n    uint256 public once;\r\n    \r\n    //address for Lottery that will be changed when init function is run\r\n    address public Lottery;\r\n    \r\n    //address for randomness that will be changed when init function is run\r\n    address public randomness;\r\n    \r\n    constructor() public{\r\n        \r\n        //establishes that ChainlinkGovernance can only be called once\r\n        once=1;\r\n    }\r\n    function init(address _lottery, address _randomness) public{\r\n        \r\n        //checks that an random address is chosen\r\n        require(_randomness != address(0));\r\n        \r\n        //checks that an Lottery address is chosen\r\n        require(_lottery != address(0));\r\n        \r\n        //checks that ChainlinkGovernance has not been run before per Lottery\r\n        require(once>0);\r\n        \r\n        //sets once=0 so that ChainlinkGovernance won't be run again per Lottery\r\n        once=once-1;\r\n        \r\n        //sets public randomness to equal given_randomness in function init\r\n        randomness=_randomness;\r\n        \r\n        //sets public Lottery to equal given _lottery in function init\r\n        Lottery=_lottery;\r\n    }\r\n}",
  "sourcePath": "C:\\Users\\User\\Documents\\Solidity_Projects\\Chainlink_Project\\contracts\\ChainlinklLotteryGovernance.sol",
  "compiler": {
    "name": "solc",
    "version": "0.6.6+commit.6c089d02.Emscripten.clang"
  },
  "schemaVersion": "3.4.3",
  "updatedAt": "2021-10-16T04:41:14.343Z",
  "devdoc": {
    "methods": {}
  },
  "userdoc": {
    "methods": {}
  }
}