{
  "contractName": "Lottery",
  "abi": [
    {
      "inputs": [
        {
          "internalType": "address",
          "name": "_governance",
          "type": "address"
        }
      ],
      "stateMutability": "nonpayable",
      "type": "constructor"
    },
    {
      "anonymous": false,
      "inputs": [
        {
          "indexed": true,
          "internalType": "bytes32",
          "name": "id",
          "type": "bytes32"
        }
      ],
      "name": "ChainlinkCancelled",
      "type": "event"
    },
    {
      "anonymous": false,
      "inputs": [
        {
          "indexed": true,
          "internalType": "bytes32",
          "name": "id",
          "type": "bytes32"
        }
      ],
      "name": "ChainlinkFulfilled",
      "type": "event"
    },
    {
      "anonymous": false,
      "inputs": [
        {
          "indexed": true,
          "internalType": "bytes32",
          "name": "id",
          "type": "bytes32"
        }
      ],
      "name": "ChainlinkRequested",
      "type": "event"
    },
    {
      "inputs": [],
      "name": "LotteryCount",
      "outputs": [
        {
          "internalType": "uint256",
          "name": "",
          "type": "uint256"
        }
      ],
      "stateMutability": "view",
      "type": "function",
      "constant": true
    },
    {
      "inputs": [],
      "name": "Lottery_Status",
      "outputs": [
        {
          "internalType": "enum Lottery.Lottery_state",
          "name": "",
          "type": "uint8"
        }
      ],
      "stateMutability": "view",
      "type": "function",
      "constant": true
    },
    {
      "inputs": [],
      "name": "governance",
      "outputs": [
        {
          "internalType": "contract ChainlinkGovernance_Interface",
          "name": "",
          "type": "address"
        }
      ],
      "stateMutability": "view",
      "type": "function",
      "constant": true
    },
    {
      "inputs": [
        {
          "internalType": "uint256",
          "name": "",
          "type": "uint256"
        }
      ],
      "name": "players",
      "outputs": [
        {
          "internalType": "address payable",
          "name": "",
          "type": "address"
        }
      ],
      "stateMutability": "view",
      "type": "function",
      "constant": true
    },
    {
      "inputs": [],
      "name": "enter",
      "outputs": [],
      "stateMutability": "payable",
      "type": "function",
      "payable": true
    },
    {
      "inputs": [],
      "name": "player_count",
      "outputs": [
        {
          "internalType": "address payable[]",
          "name": "",
          "type": "address[]"
        }
      ],
      "stateMutability": "view",
      "type": "function",
      "constant": true
    },
    {
      "inputs": [],
      "name": "Total",
      "outputs": [
        {
          "internalType": "uint256",
          "name": "",
          "type": "uint256"
        }
      ],
      "stateMutability": "view",
      "type": "function",
      "constant": true
    },
    {
      "inputs": [
        {
          "internalType": "bytes32",
          "name": "_requestId",
          "type": "bytes32"
        }
      ],
      "name": "fulfill_alarm",
      "outputs": [],
      "stateMutability": "nonpayable",
      "type": "function"
    },
    {
      "inputs": [
        {
          "internalType": "uint256",
          "name": "duration",
          "type": "uint256"
        }
      ],
      "name": "start_Lottery",
      "outputs": [],
      "stateMutability": "nonpayable",
      "type": "function"
    },
    {
      "inputs": [
        {
          "internalType": "uint256",
          "name": "randomness",
          "type": "uint256"
        }
      ],
      "name": "fulfill_randomness",
      "outputs": [],
      "stateMutability": "nonpayable",
      "type": "function"
    }
  ],
  "bytecode": "0x6080604052600160045566038d7ea4c68000600a5567016345785d8a0000600b5573aa1dc356dc4b18f30c347798fd5379f3d77abc5b600c60006101000a81548173ffffffffffffffffffffffffffffffffffffffff021916908373ffffffffffffffffffffffffffffffffffffffff1602179055507f3938323130356436393035303463356439636533373464303430633038363534600d5573a36085f69e2889c224210f603d836748e7dc0088600e60006101000a81548173ffffffffffffffffffffffffffffffffffffffff021916908373ffffffffffffffffffffffffffffffffffffffff1602179055503480156100fa57600080fd5b506040516119773803806119778339818101604052602081101561011d57600080fd5b810190808051906020019092919050505061015f600e60009054906101000a900473ffffffffffffffffffffffffffffffffffffffff166101d260201b60201c565b60016007819055506001600660006101000a81548160ff0219169083600281111561018657fe5b021790555080600960006101000a81548173ffffffffffffffffffffffffffffffffffffffff021916908373ffffffffffffffffffffffffffffffffffffffff16021790555050610216565b80600260006101000a81548173ffffffffffffffffffffffffffffffffffffffff021916908373ffffffffffffffffffffffffffffffffffffffff16021790555050565b611752806102256000396000f3fe6080604052600436106100915760003560e01c8063c5e0b9fe11610059578063c5e0b9fe146101b9578063cf7b8c5f146101f2578063d9ad2b401461025e578063e97dcb6214610299578063f71d96cb146102a357610091565b80631c774d151461009657806322bb34d8146100d15780635aa6e6751461010c5780639257b8f414610163578063aef1bfd71461018e575b600080fd5b3480156100a257600080fd5b506100cf600480360360208110156100b957600080fd5b810190808035906020019092919050505061031e565b005b3480156100dd57600080fd5b5061010a600480360360208110156100f457600080fd5b810190808035906020019092919050505061047b565b005b34801561011857600080fd5b5061012161066d565b604051808273ffffffffffffffffffffffffffffffffffffffff1673ffffffffffffffffffffffffffffffffffffffff16815260200191505060405180910390f35b34801561016f57600080fd5b50610178610693565b6040518082815260200191505060405180910390f35b34801561019a57600080fd5b506101a361069b565b6040518082815260200191505060405180910390f35b3480156101c557600080fd5b506101ce6106a1565b604051808260028111156101de57fe5b60ff16815260200191505060405180910390f35b3480156101fe57600080fd5b506102076106b4565b6040518080602001828103825283818151815260200191508051906020019060200280838360005b8381101561024a57808201518184015260208101905061022f565b505050509050019250505060405180910390f35b34801561026a57600080fd5b506102976004803603602081101561028157600080fd5b8101908080359060200190929190505050610742565b005b6102a161096f565b005b3480156102af57600080fd5b506102dc600480360360208110156102c657600080fd5b8101908080359060200190929190505050610a0e565b604051808273ffffffffffffffffffffffffffffffffffffffff1673ffffffffffffffffffffffffffffffffffffffff16815260200191505060405180910390f35b6001600281111561032b57fe5b600660009054906101000a900460ff16600281111561034657fe5b146103b9576040517f08c379a00000000000000000000000000000000000000000000000000000000081526004018080602001828103825260148152602001807f4c6f7474657279206f70656e696e6720736f6f6e00000000000000000000000081525060200191505060405180910390fd5b6000600660006101000a81548160ff021916908360028111156103d857fe5b02179055506103e561157d565b6103f9600d54306322bb34d860e01b610a4a565b90506104476040518060400160405280600581526020017f756e74696c00000000000000000000000000000000000000000000000000000081525083420183610a7b9092919063ffffffff16565b610476600c60009054906101000a900473ffffffffffffffffffffffffffffffffffffffff1682600b54610aae565b505050565b806005600082815260200190815260200160002060009054906101000a900473ffffffffffffffffffffffffffffffffffffffff1673ffffffffffffffffffffffffffffffffffffffff163373ffffffffffffffffffffffffffffffffffffffff1614610533576040517f08c379a00000000000000000000000000000000000000000000000000000000081526004018080602001828103825260288152602001806116f56028913960400191505060405180910390fd5b6005600082815260200190815260200160002060006101000a81549073ffffffffffffffffffffffffffffffffffffffff0219169055807f7cc135e0cebb02c3480ae5d74d377283180a2601f8f644edf7987b009316c63a60405160405180910390a2600060028111156105a357fe5b600660009054906101000a900460ff1660028111156105be57fe5b14610631576040517f08c379a00000000000000000000000000000000000000000000000000000000081526004018080602001828103825260178152602001807f4c6f7474657279206973206f70656e696e6720736f6f6e00000000000000000081525060200191505060405180910390fd5b6002600660006101000a81548160ff0219169083600281111561065057fe5b0217905550600160075401600781905550610669610d66565b5050565b600960009054906101000a900473ffffffffffffffffffffffffffffffffffffffff1681565b600047905090565b60075481565b600660009054906101000a900460ff1681565b6060600880548060200260200160405190810160405280929190818152602001828054801561073857602002820191906000526020600020905b8160009054906101000a900473ffffffffffffffffffffffffffffffffffffffff1673ffffffffffffffffffffffffffffffffffffffff16815260200190600101908083116106ee575b5050505050905090565b60028081111561074e57fe5b600660009054906101000a900460ff16600281111561076957fe5b146107dc576040517f08c379a000000000000000000000000000000000000000000000000000000000815260040180806020018281038252600b8152602001807f43616c63756c6174696e6700000000000000000000000000000000000000000081525060200191505060405180910390fd5b60008111610852576040517f08c379a00000000000000000000000000000000000000000000000000000000081526004018080602001828103825260098152602001807f4e6f2072616e646f6d000000000000000000000000000000000000000000000081525060200191505060405180910390fd5b6000600880549050828161086257fe5b0690506008818154811061087257fe5b9060005260206000200160009054906101000a900473ffffffffffffffffffffffffffffffffffffffff1673ffffffffffffffffffffffffffffffffffffffff166108fc479081150290604051600060405180830381858888f193505050501580156108e2573d6000803e3d6000fd5b50600067ffffffffffffffff811180156108fb57600080fd5b5060405190808252806020026020018201604052801561092a5781602001602082028036833780820191505090505b50600890805190602001906109409291906115ea565b506001600281111561094e57fe5b600660009054906101000a900460ff16600281111561096957fe5b50505050565b600a54341461097a57fe5b6000600281111561098757fe5b600660009054906101000a900460ff1660028111156109a257fe5b146109a957fe5b6008339080600181540180825580915050600190039060005260206000200160009091909190916101000a81548173ffffffffffffffffffffffffffffffffffffffff021916908373ffffffffffffffffffffffffffffffffffffffff160217905550565b60088181548110610a1b57fe5b906000526020600020016000915054906101000a900473ffffffffffffffffffffffffffffffffffffffff1681565b610a5261157d565b610a5a61157d565b610a7185858584610f27909392919063ffffffff16565b9150509392505050565b610a92828460800151610fd790919063ffffffff16565b610aa9818460800151610ffc90919063ffffffff16565b505050565b600030600454604051602001808373ffffffffffffffffffffffffffffffffffffffff1673ffffffffffffffffffffffffffffffffffffffff1660601b815260140182815260200192505050604051602081830303815290604052805190602001209050600454836060018181525050836005600083815260200190815260200160002060006101000a81548173ffffffffffffffffffffffffffffffffffffffff021916908373ffffffffffffffffffffffffffffffffffffffff160217905550807fb5e6e01e79f91267dc17b4e6314d5d4d03593d2ceee0fbb452b750bd70ea5af960405160405180910390a2600260009054906101000a900473ffffffffffffffffffffffffffffffffffffffff1673ffffffffffffffffffffffffffffffffffffffff16634000aea08584610be68761100c565b6040518463ffffffff1660e01b8152600401808473ffffffffffffffffffffffffffffffffffffffff1673ffffffffffffffffffffffffffffffffffffffff16815260200183815260200180602001828103825283818151815260200191508051906020019080838360005b83811015610c6d578082015181840152602081019050610c52565b50505050905090810190601f168015610c9a5780820380516001836020036101000a031916815260200191505b50945050505050602060405180830381600087803b158015610cbb57600080fd5b505af1158015610ccf573d6000803e3d6000fd5b505050506040513d6020811015610ce557600080fd5b8101908080519060200190929190505050610d4b576040517f08c379a00000000000000000000000000000000000000000000000000000000081526004018080602001828103825260238152602001806116d26023913960400191505060405180910390fd5b60016004600082825401925050819055508090509392505050565b600280811115610d7257fe5b600660009054906101000a900460ff166002811115610d8d57fe5b14610e00576040517f08c379a000000000000000000000000000000000000000000000000000000000815260040180806020018281038252600b8152602001807f43616c63756c6174696e6700000000000000000000000000000000000000000081525060200191505060405180910390fd5b600160075401600781905550600960009054906101000a900473ffffffffffffffffffffffffffffffffffffffff1673ffffffffffffffffffffffffffffffffffffffff1663360131896040518163ffffffff1660e01b815260040160206040518083038186803b158015610e7457600080fd5b505afa158015610e88573d6000803e3d6000fd5b505050506040513d6020811015610e9e57600080fd5b810190808051906020019092919050505073ffffffffffffffffffffffffffffffffffffffff1663655b08eb6007546007546040518363ffffffff1660e01b81526004018083815260200182815260200192505050600060405180830381600087803b158015610f0d57600080fd5b505af1158015610f21573d6000803e3d6000fd5b50505050565b610f2f61157d565b610f3f85608001516101006111d8565b508385600001818152505082856020019073ffffffffffffffffffffffffffffffffffffffff16908173ffffffffffffffffffffffffffffffffffffffff16815250508185604001907bffffffffffffffffffffffffffffffffffffffffffffffffffffffff191690817bffffffffffffffffffffffffffffffffffffffffffffffffffffffff191681525050849050949350505050565b610fe4826003835161122c565b610ff7818361137190919063ffffffff16565b505050565b6110088260008361122c565b5050565b6060634042994660e01b60008084600001518560200151866040015187606001516001896080015160000151604051602401808973ffffffffffffffffffffffffffffffffffffffff1673ffffffffffffffffffffffffffffffffffffffff1681526020018881526020018781526020018673ffffffffffffffffffffffffffffffffffffffff1673ffffffffffffffffffffffffffffffffffffffff168152602001857bffffffffffffffffffffffffffffffffffffffffffffffffffffffff19167bffffffffffffffffffffffffffffffffffffffffffffffffffffffff1916815260200184815260200183815260200180602001828103825283818151815260200191508051906020019080838360005b8381101561113b578082015181840152602081019050611120565b50505050905090810190601f1680156111685780820380516001836020036101000a031916815260200191505b509950505050505050505050604051602081830303815290604052907bffffffffffffffffffffffffffffffffffffffffffffffffffffffff19166020820180517bffffffffffffffffffffffffffffffffffffffffffffffffffffffff83818316178352505050509050919050565b6111e0611674565b6000602083816111ec57fe5b061461120557602082816111fc57fe5b06602003820191505b81836020018181525050604051808452600081528281016020016040525082905092915050565b60178111611259576112538160058460ff16901b60ff16178461139390919063ffffffff16565b5061136c565b60ff811161129b5761127e601860058460ff16901b178461139390919063ffffffff16565b50611295816001856113b39092919063ffffffff16565b5061136b565b61ffff81116112de576112c1601960058460ff16901b178461139390919063ffffffff16565b506112d8816002856113b39092919063ffffffff16565b5061136a565b63ffffffff811161132357611306601a60058460ff16901b178461139390919063ffffffff16565b5061131d816004856113b39092919063ffffffff16565b50611369565b67ffffffffffffffff81116113685761134f601b60058460ff16901b178461139390919063ffffffff16565b50611366816008856113b39092919063ffffffff16565b505b5b5b5b5b505050565b611379611674565b61138b838460000151518485516113d5565b905092915050565b61139b611674565b6113ab838460000151518461148e565b905092915050565b6113bb611674565b6113cc8485600001515185856114dc565b90509392505050565b6113dd611674565b82518211156113eb57600080fd5b846020015182850111156114165761141585600261140f886020015188870161153d565b02611559565b5b6000808651805187602083010193508088870111156114355787860182525b60208701925050505b60208410611461578051825260208201915060208101905060208403935061143e565b60006001856020036101000a03905080198251168184511681811785525050879350505050949350505050565b611496611674565b836020015183106114b3576114b2846002866020015102611559565b5b83518051602085830101848153818614156114cf576001820183525b5050508390509392505050565b6114e4611674565b846020015184830111156115025761150185600286850102611559565b5b60006001836101000a039050855183868201018583198251161781528151858801111561152f5784870182525b505085915050949350505050565b60008183111561154f57829050611553565b8190505b92915050565b60608260000151905061156c83836111d8565b506115778382611371565b50505050565b6040518060a0016040528060008019168152602001600073ffffffffffffffffffffffffffffffffffffffff16815260200160007bffffffffffffffffffffffffffffffffffffffffffffffffffffffff19168152602001600081526020016115e4611674565b81525090565b828054828255906000526020600020908101928215611663579160200282015b828111156116625782518260006101000a81548173ffffffffffffffffffffffffffffffffffffffff021916908373ffffffffffffffffffffffffffffffffffffffff1602179055509160200191906001019061160a565b5b509050611670919061168e565b5090565b604051806040016040528060608152602001600081525090565b6116ce91905b808211156116ca57600081816101000a81549073ffffffffffffffffffffffffffffffffffffffff021916905550600101611694565b5090565b9056fe756e61626c6520746f207472616e73666572416e6443616c6c20746f206f7261636c65536f75726365206d75737420626520746865206f7261636c65206f66207468652072657175657374a2646970667358221220f989b991630636393a04663ce388326fdb6663d217f59dc831e4ff3b31dd409d64736f6c63430006060033",
  "immutableReferences": {},
  "source": "//This is for Educational Purposes Only\r\npragma solidity ^0.6.6;\r\n\r\n//Chainlink Github\r\nimport\"@chainlink/contracts/src/v0.6/ChainlinkClient.sol\";\r\n\r\n//Import ChainlinkRandomness_Interface.sol and ChainlinkGovernance_Interface.sol\r\nimport {VRF_Random} from \"./Interfaces/ChainlinkRandomness_Interface.sol\";\r\nimport {ChainlinkGovernance_Interface} from \"./Interfaces/ChainlinkGovernance_Interface.sol\";\r\n\r\n\r\n//Lottery contract inherits from the ChainlinkClient contract\r\ncontract Lottery is ChainlinkClient {\r\n    \r\n        //Defines lottery states as open, closed,or calculating\r\n        enum Lottery_state { Open, Closed, Calculating }\r\n\r\n        //Displays the state of the lottery externally\r\n        Lottery_state public Lottery_Status;\r\n\r\n        //Counts how many Lotteries have been played\r\n        uint256 public LotteryCount;\r\n\r\n        //Creates a list for Players to join\r\n        address payable[] public players;\r\n\r\n        //displays Interfaces \r\n        ChainlinkGovernance_Interface public governance;\r\n        \r\n        //Defines Entry Costs as .0025 ether (~8.75 USD as of 10/12/2021)\r\n        //This value can be changed to whatever entry costs are required\r\n        uint256 Minimum_requirement = 1000000000000000;\r\n        \r\n        //Defines Gas/Transactional Fees to use Oracle Nodes(.1 LINK=0.00070023 Ether)\r\n        uint256 Payment_to_Oracle=100000000000000000;\r\n        \r\n        //Sets Chainlink Alarm clocks by connecting them to Kovan Testnet Oracles\r\n        //Kovan Testnet Website: https://kovan-testnet.github.io/website/\r\n        address Chainlink_Oracle_Alarm = 0xAA1DC356dc4B18f30C347798FD5379F3D77ABC5b;\r\n        bytes32 Chainlink_Alarm_JobId = \"982105d690504c5d9ce374d040c08654\";\r\n        address _link=0xa36085F69e2889c224210F603D836748e7dC0088;\r\n\r\n    //Sets initial values for variables\r\n    constructor(address _governance) public\r\n    {\r\n        //Required to connect with Chainlink Oracles\r\n        setChainlinkToken(_link);\r\n    \r\n        //Lottery Status = Closed\r\n        LotteryCount=1;\r\n    \r\n        //Sets Lottery State as Closed\r\n        Lottery_Status=Lottery_state.Closed;\r\n        \r\n        governance = ChainlinkGovernance_Interface(_governance);\r\n    }\r\n    \r\n    \r\n    //Function to check if lottery is open and also require payment before adding to Player list\r\n    function enter() public payable {\r\n        \r\n        //Requires Players to pay entry costs\r\n        assert(msg.value == Minimum_requirement);\r\n        \r\n        //Checks that Lottery is open\r\n        assert(Lottery_Status == Lottery_state.Open);\r\n        \r\n        //adds new player to the existing Player list\r\n        players.push(msg.sender);\r\n    }\r\n\r\n    //function to display total amount of players \r\n    function player_count() public view returns(address payable[] memory) {\r\n        return players;\r\n    }\r\n\r\n    //function to display toal amount of earnings in a given Lottery\r\n    function Total() public view returns(uint256){\r\n        return address(this).balance;\r\n    }\r\n    \r\n    \r\n    //Private Function to pick winner randomly using Chainlink VRFs\r\n    function PickWinner() private {\r\n        \r\n        //Checks that Lottery is Calculating Winner\r\n        require(Lottery_Status==Lottery_state.Calculating,\"Calculating\");\r\n        LotteryCount = LotteryCount + 1;\r\n        //Uses Chainlink VRF function in ChainlinkLotteryGovernance.sol to generate randomness\r\n        VRF_Random(governance.randomness()).getRandom(LotteryCount,LotteryCount);\r\n    }\r\n    \r\n      //Function to stop player enteries and initiate the PickWinner() function\r\n    function fulfill_alarm(bytes32 _requestId)\r\n    \r\n        //Ensures that the request is valid and viewable externally \r\n        public  \r\n        recordChainlinkFulfillment(_requestId)\r\n            {\r\n                //Checks that Lottery is Calculating Winner   \r\n                require(Lottery_Status==Lottery_state.Open,\"Lottery is opening soon\");\r\n                \r\n                //Changes Lottery Status to Calculating\r\n                Lottery_Status=Lottery_state.Calculating;\r\n                \r\n                //Increases the Completed Lottery Count by 1 \r\n                LotteryCount=LotteryCount + 1;\r\n                \r\n                //Initiates PickWinner() function\r\n                PickWinner();\r\n                \r\n            }\r\n\r\n     \r\n    //Function to start new lottery and send Alarm Request to Oracle       \r\n    function start_Lottery(uint256 duration) public {\r\n        \r\n        //Ensures previous lottery is closed\r\n        require(Lottery_Status==Lottery_state.Closed,\"Lottery opening soon\");\r\n        \r\n        //Starts new lottery\r\n        Lottery_Status=Lottery_state.Open;\r\n        \r\n        //Connects to Chainlink Alarm\r\n        Chainlink.Request memory req = buildChainlinkRequest(Chainlink_Alarm_JobId, address(this), this.fulfill_alarm.selector);\r\n        \r\n        //Returns fulfill_alarm function after now + duration amount of time\r\n        req.addUint(\"until\", now + duration);\r\n        \r\n        //Sends the Chainlink Request to The Chainlink Alarm, and sends associated Gas/Transactional fees)\r\n        sendChainlinkRequestTo(Chainlink_Oracle_Alarm,req,Payment_to_Oracle);\r\n    \r\n    \r\n    \r\n    }\r\n\r\n  \r\n    \r\n    //Function to decide who is the winner and transfer winnings\r\n    function fulfill_randomness(uint256 randomness) external {\r\n        //Checks that Lottery is Calculating Winner\r\n        require(Lottery_Status==Lottery_state.Calculating,\"Calculating\");\r\n        \r\n        //Checks that VRF randomness is completed\r\n        require(randomness>0,\"No random\");\r\n        \r\n        //converts the randomized number to a value from 0 to players.length in order to pick a winner\r\n        uint256 index = randomness % players.length;\r\n        \r\n        //transfer Total earnings of the lottery to the winning player\r\n        players[index].transfer(address(this).balance);\r\n        \r\n        //clears out player list\r\n        players = new address payable[](0);\r\n        \r\n        //closes lottery\r\n        Lottery_Status==Lottery_state.Closed;\r\n    }\r\n    \r\n    \r\n}",
  "sourcePath": "C:\\Users\\User\\Documents\\Solidity_Projects\\Chainlink_Project\\contracts\\ChainlinklLottery.sol",
  "compiler": {
    "name": "solc",
    "version": "0.6.6+commit.6c089d02.Emscripten.clang"
  },
  "schemaVersion": "3.4.3",
  "updatedAt": "2021-10-17T03:35:15.796Z",
  "networkType": "ethereum",
  "devdoc": {
    "methods": {}
  },
  "userdoc": {
    "methods": {}
  }
}