{
  "contractName": "Lottery",
  "abi": [
    {
      "inputs": [
        {
          "internalType": "address",
          "name": "_governance",
          "type": "address"
        }
      ],
      "stateMutability": "nonpayable",
      "type": "constructor"
    },
    {
      "anonymous": false,
      "inputs": [
        {
          "indexed": true,
          "internalType": "bytes32",
          "name": "id",
          "type": "bytes32"
        }
      ],
      "name": "ChainlinkCancelled",
      "type": "event"
    },
    {
      "anonymous": false,
      "inputs": [
        {
          "indexed": true,
          "internalType": "bytes32",
          "name": "id",
          "type": "bytes32"
        }
      ],
      "name": "ChainlinkFulfilled",
      "type": "event"
    },
    {
      "anonymous": false,
      "inputs": [
        {
          "indexed": true,
          "internalType": "bytes32",
          "name": "id",
          "type": "bytes32"
        }
      ],
      "name": "ChainlinkRequested",
      "type": "event"
    },
    {
      "inputs": [],
      "name": "LotteryCount",
      "outputs": [
        {
          "internalType": "uint256",
          "name": "",
          "type": "uint256"
        }
      ],
      "stateMutability": "view",
      "type": "function"
    },
    {
      "inputs": [],
      "name": "Lottery_Status",
      "outputs": [
        {
          "internalType": "enum Lottery.Lottery_state",
          "name": "",
          "type": "uint8"
        }
      ],
      "stateMutability": "view",
      "type": "function"
    },
    {
      "inputs": [],
      "name": "governance",
      "outputs": [
        {
          "internalType": "contract ChainlinkGovernance_Interface",
          "name": "",
          "type": "address"
        }
      ],
      "stateMutability": "view",
      "type": "function"
    },
    {
      "inputs": [
        {
          "internalType": "uint256",
          "name": "",
          "type": "uint256"
        }
      ],
      "name": "players",
      "outputs": [
        {
          "internalType": "address payable",
          "name": "",
          "type": "address"
        }
      ],
      "stateMutability": "view",
      "type": "function"
    },
    {
      "inputs": [],
      "name": "enter",
      "outputs": [],
      "stateMutability": "payable",
      "type": "function"
    },
    {
      "inputs": [],
      "name": "player_count",
      "outputs": [
        {
          "internalType": "address payable[]",
          "name": "",
          "type": "address[]"
        }
      ],
      "stateMutability": "view",
      "type": "function"
    },
    {
      "inputs": [],
      "name": "Total",
      "outputs": [
        {
          "internalType": "uint256",
          "name": "",
          "type": "uint256"
        }
      ],
      "stateMutability": "view",
      "type": "function"
    },
    {
      "inputs": [
        {
          "internalType": "bytes32",
          "name": "_requestId",
          "type": "bytes32"
        }
      ],
      "name": "fulfill_alarm",
      "outputs": [],
      "stateMutability": "nonpayable",
      "type": "function"
    },
    {
      "inputs": [
        {
          "internalType": "uint256",
          "name": "duration",
          "type": "uint256"
        }
      ],
      "name": "start_Lottery",
      "outputs": [],
      "stateMutability": "nonpayable",
      "type": "function"
    },
    {
      "inputs": [
        {
          "internalType": "uint256",
          "name": "randomness",
          "type": "uint256"
        }
      ],
      "name": "fulfill_randomness",
      "outputs": [],
      "stateMutability": "nonpayable",
      "type": "function"
    }
  ],
  "bytecode": "0x6080604052600160045573aa1dc356dc4b18f30c347798fd5379f3d77abc5b600660006101000a81548173ffffffffffffffffffffffffffffffffffffffff021916908373ffffffffffffffffffffffffffffffffffffffff1602179055507f39383231303564363930353034633564396365333734643034306330383635346007556608e1bc9bf0400060085567016345785d8a00006009553480156100a557600080fd5b506040516200178e3803806200178e833981810160405260208110156100ca57600080fd5b81019080805190602001909291905050506100e961015c60201b60201c565b6001600c819055506001600a60006101000a81548160ff0219169083600281111561011057fe5b021790555080600a60016101000a81548173ffffffffffffffffffffffffffffffffffffffff021916908373ffffffffffffffffffffffffffffffffffffffff16021790555050610245565b6101ff73c89bd4e1632d3a43cb03aaad5262cbe4038bc57173ffffffffffffffffffffffffffffffffffffffff166338cc48316040518163ffffffff1660e01b815260040160206040518083038186803b1580156101b957600080fd5b505afa1580156101cd573d6000803e3d6000fd5b505050506040513d60208110156101e357600080fd5b810190808051906020019092919050505061020160201b60201c565b565b80600260006101000a81548173ffffffffffffffffffffffffffffffffffffffff021916908373ffffffffffffffffffffffffffffffffffffffff16021790555050565b61153980620002556000396000f3fe6080604052600436106100915760003560e01c8063c5e0b9fe11610059578063c5e0b9fe146101b9578063cf7b8c5f146101f2578063d9ad2b401461025e578063e97dcb6214610299578063f71d96cb146102a357610091565b80631c774d151461009657806322bb34d8146100d15780635aa6e6751461010c5780639257b8f414610163578063aef1bfd71461018e575b600080fd5b3480156100a257600080fd5b506100cf600480360360208110156100b957600080fd5b810190808035906020019092919050505061031e565b005b3480156100dd57600080fd5b5061010a600480360360208110156100f457600080fd5b8101908080359060200190929190505050610412565b005b34801561011857600080fd5b5061012161059b565b604051808273ffffffffffffffffffffffffffffffffffffffff1673ffffffffffffffffffffffffffffffffffffffff16815260200191505060405180910390f35b34801561016f57600080fd5b506101786105c1565b6040518082815260200191505060405180910390f35b34801561019a57600080fd5b506101a36105c9565b6040518082815260200191505060405180910390f35b3480156101c557600080fd5b506101ce6105cf565b604051808260028111156101de57fe5b60ff16815260200191505060405180910390f35b3480156101fe57600080fd5b506102076105e2565b6040518080602001828103825283818151815260200191508051906020019060200280838360005b8381101561024a57808201518184015260208101905061022f565b505050509050019250505060405180910390f35b34801561026a57600080fd5b506102976004803603602081101561028157600080fd5b8101908080359060200190929190505050610670565b005b6102a16107cb565b005b3480156102af57600080fd5b506102dc600480360360208110156102c657600080fd5b810190808035906020019092919050505061086a565b604051808273ffffffffffffffffffffffffffffffffffffffff1673ffffffffffffffffffffffffffffffffffffffff16815260200191505060405180910390f35b6001600281111561032b57fe5b600a60009054906101000a900460ff16600281111561034657fe5b1461035057600080fd5b6000600a60006101000a81548160ff0219169083600281111561036f57fe5b021790555061037c611364565b610390600754306322bb34d860e01b6108a6565b90506103de6040518060400160405280600581526020017f756e74696c000000000000000000000000000000000000000000000000000000815250834201836108d79092919063ffffffff16565b61040d600660009054906101000a900473ffffffffffffffffffffffffffffffffffffffff168260095461090a565b505050565b806005600082815260200190815260200160002060009054906101000a900473ffffffffffffffffffffffffffffffffffffffff1673ffffffffffffffffffffffffffffffffffffffff163373ffffffffffffffffffffffffffffffffffffffff16146104ca576040517f08c379a00000000000000000000000000000000000000000000000000000000081526004018080602001828103825260288152602001806114dc6028913960400191505060405180910390fd5b6005600082815260200190815260200160002060006101000a81549073ffffffffffffffffffffffffffffffffffffffff0219169055807f7cc135e0cebb02c3480ae5d74d377283180a2601f8f644edf7987b009316c63a60405160405180910390a26000600281111561053a57fe5b600a60009054906101000a900460ff16600281111561055557fe5b1461055f57600080fd5b6002600a60006101000a81548160ff0219169083600281111561057e57fe5b02179055506001600c5401600c81905550610597610bc2565b5050565b600a60019054906101000a900473ffffffffffffffffffffffffffffffffffffffff1681565b600047905090565b600c5481565b600a60009054906101000a900460ff1681565b6060600b80548060200260200160405190810160405280929190818152602001828054801561066657602002820191906000526020600020905b8160009054906101000a900473ffffffffffffffffffffffffffffffffffffffff1673ffffffffffffffffffffffffffffffffffffffff168152602001906001019080831161061c575b5050505050905090565b60028081111561067c57fe5b600a60009054906101000a900460ff16600281111561069757fe5b146106a157600080fd5b600081116106ae57600080fd5b6000600b8054905082816106be57fe5b069050600b81815481106106ce57fe5b9060005260206000200160009054906101000a900473ffffffffffffffffffffffffffffffffffffffff1673ffffffffffffffffffffffffffffffffffffffff166108fc479081150290604051600060405180830381858888f1935050505015801561073e573d6000803e3d6000fd5b50600067ffffffffffffffff8111801561075757600080fd5b506040519080825280602002602001820160405280156107865781602001602082028036833780820191505090505b50600b908051906020019061079c9291906113d1565b50600160028111156107aa57fe5b600a60009054906101000a900460ff1660028111156107c557fe5b50505050565b60085434146107d657fe5b600060028111156107e357fe5b600a60009054906101000a900460ff1660028111156107fe57fe5b1461080557fe5b600b339080600181540180825580915050600190039060005260206000200160009091909190916101000a81548173ffffffffffffffffffffffffffffffffffffffff021916908373ffffffffffffffffffffffffffffffffffffffff160217905550565b600b818154811061087757fe5b906000526020600020016000915054906101000a900473ffffffffffffffffffffffffffffffffffffffff1681565b6108ae611364565b6108b6611364565b6108cd85858584610d0e909392919063ffffffff16565b9150509392505050565b6108ee828460800151610dbe90919063ffffffff16565b610905818460800151610de390919063ffffffff16565b505050565b600030600454604051602001808373ffffffffffffffffffffffffffffffffffffffff1673ffffffffffffffffffffffffffffffffffffffff1660601b815260140182815260200192505050604051602081830303815290604052805190602001209050600454836060018181525050836005600083815260200190815260200160002060006101000a81548173ffffffffffffffffffffffffffffffffffffffff021916908373ffffffffffffffffffffffffffffffffffffffff160217905550807fb5e6e01e79f91267dc17b4e6314d5d4d03593d2ceee0fbb452b750bd70ea5af960405160405180910390a2600260009054906101000a900473ffffffffffffffffffffffffffffffffffffffff1673ffffffffffffffffffffffffffffffffffffffff16634000aea08584610a4287610df3565b6040518463ffffffff1660e01b8152600401808473ffffffffffffffffffffffffffffffffffffffff1673ffffffffffffffffffffffffffffffffffffffff16815260200183815260200180602001828103825283818151815260200191508051906020019080838360005b83811015610ac9578082015181840152602081019050610aae565b50505050905090810190601f168015610af65780820380516001836020036101000a031916815260200191505b50945050505050602060405180830381600087803b158015610b1757600080fd5b505af1158015610b2b573d6000803e3d6000fd5b505050506040513d6020811015610b4157600080fd5b8101908080519060200190929190505050610ba7576040517f08c379a00000000000000000000000000000000000000000000000000000000081526004018080602001828103825260238152602001806114b96023913960400191505060405180910390fd5b60016004600082825401925050819055508090509392505050565b600280811115610bce57fe5b600a60009054906101000a900460ff166002811115610be957fe5b14610bf357600080fd5b600a60019054906101000a900473ffffffffffffffffffffffffffffffffffffffff1673ffffffffffffffffffffffffffffffffffffffff1663360131896040518163ffffffff1660e01b815260040160206040518083038186803b158015610c5b57600080fd5b505afa158015610c6f573d6000803e3d6000fd5b505050506040513d6020811015610c8557600080fd5b810190808051906020019092919050505073ffffffffffffffffffffffffffffffffffffffff1663655b08eb600c54600c546040518363ffffffff1660e01b81526004018083815260200182815260200192505050600060405180830381600087803b158015610cf457600080fd5b505af1158015610d08573d6000803e3d6000fd5b50505050565b610d16611364565b610d268560800151610100610fbf565b508385600001818152505082856020019073ffffffffffffffffffffffffffffffffffffffff16908173ffffffffffffffffffffffffffffffffffffffff16815250508185604001907bffffffffffffffffffffffffffffffffffffffffffffffffffffffff191690817bffffffffffffffffffffffffffffffffffffffffffffffffffffffff191681525050849050949350505050565b610dcb8260038351611013565b610dde818361115890919063ffffffff16565b505050565b610def82600083611013565b5050565b6060634042994660e01b60008084600001518560200151866040015187606001516001896080015160000151604051602401808973ffffffffffffffffffffffffffffffffffffffff1673ffffffffffffffffffffffffffffffffffffffff1681526020018881526020018781526020018673ffffffffffffffffffffffffffffffffffffffff1673ffffffffffffffffffffffffffffffffffffffff168152602001857bffffffffffffffffffffffffffffffffffffffffffffffffffffffff19167bffffffffffffffffffffffffffffffffffffffffffffffffffffffff1916815260200184815260200183815260200180602001828103825283818151815260200191508051906020019080838360005b83811015610f22578082015181840152602081019050610f07565b50505050905090810190601f168015610f4f5780820380516001836020036101000a031916815260200191505b509950505050505050505050604051602081830303815290604052907bffffffffffffffffffffffffffffffffffffffffffffffffffffffff19166020820180517bffffffffffffffffffffffffffffffffffffffffffffffffffffffff83818316178352505050509050919050565b610fc761145b565b600060208381610fd357fe5b0614610fec5760208281610fe357fe5b06602003820191505b81836020018181525050604051808452600081528281016020016040525082905092915050565b601781116110405761103a8160058460ff16901b60ff16178461117a90919063ffffffff16565b50611153565b60ff811161108257611065601860058460ff16901b178461117a90919063ffffffff16565b5061107c8160018561119a9092919063ffffffff16565b50611152565b61ffff81116110c5576110a8601960058460ff16901b178461117a90919063ffffffff16565b506110bf8160028561119a9092919063ffffffff16565b50611151565b63ffffffff811161110a576110ed601a60058460ff16901b178461117a90919063ffffffff16565b506111048160048561119a9092919063ffffffff16565b50611150565b67ffffffffffffffff811161114f57611136601b60058460ff16901b178461117a90919063ffffffff16565b5061114d8160088561119a9092919063ffffffff16565b505b5b5b5b5b505050565b61116061145b565b611172838460000151518485516111bc565b905092915050565b61118261145b565b6111928384600001515184611275565b905092915050565b6111a261145b565b6111b38485600001515185856112c3565b90509392505050565b6111c461145b565b82518211156111d257600080fd5b846020015182850111156111fd576111fc8560026111f68860200151888701611324565b02611340565b5b60008086518051876020830101935080888701111561121c5787860182525b60208701925050505b602084106112485780518252602082019150602081019050602084039350611225565b60006001856020036101000a03905080198251168184511681811785525050879350505050949350505050565b61127d61145b565b8360200151831061129a57611299846002866020015102611340565b5b83518051602085830101848153818614156112b6576001820183525b5050508390509392505050565b6112cb61145b565b846020015184830111156112e9576112e885600286850102611340565b5b60006001836101000a03905085518386820101858319825116178152815185880111156113165784870182525b505085915050949350505050565b6000818311156113365782905061133a565b8190505b92915050565b6060826000015190506113538383610fbf565b5061135e8382611158565b50505050565b6040518060a0016040528060008019168152602001600073ffffffffffffffffffffffffffffffffffffffff16815260200160007bffffffffffffffffffffffffffffffffffffffffffffffffffffffff19168152602001600081526020016113cb61145b565b81525090565b82805482825590600052602060002090810192821561144a579160200282015b828111156114495782518260006101000a81548173ffffffffffffffffffffffffffffffffffffffff021916908373ffffffffffffffffffffffffffffffffffffffff160217905550916020019190600101906113f1565b5b5090506114579190611475565b5090565b604051806040016040528060608152602001600081525090565b6114b591905b808211156114b157600081816101000a81549073ffffffffffffffffffffffffffffffffffffffff02191690555060010161147b565b5090565b9056fe756e61626c6520746f207472616e73666572416e6443616c6c20746f206f7261636c65536f75726365206d75737420626520746865206f7261636c65206f66207468652072657175657374a264697066735822122008f0ee1a11ff27153b3457c590ba1566b6d8e7cca4ccd314e218c5283359bd8f64736f6c63430006060033",
  "immutableReferences": {},
  "source": "//This is for Educational Purposes Only\r\npragma solidity ^0.6.6;\r\n\r\n//Chainlink Github\r\nimport\"@chainlink/contracts/src/v0.6/ChainlinkClient.sol\";\r\n\r\n//Import ChainlinkRandomness_Interface.sol and ChainlinkGovernance_Interface.sol\r\nimport {VRF_Random} from \"./Interfaces/ChainlinkRandomness_Interface.sol\";\r\nimport {ChainlinkGovernance_Interface} from \"./Interfaces/ChainlinkGovernance_Interface.sol\";\r\n\r\n\r\n//Lottery contract inherits from the ChainlinkClient contract\r\ncontract Lottery is ChainlinkClient {\r\n    \r\n        //Sets Chainlink Alarm clocks by connecting them to Kovan Testnet Oracles\r\n        //Kovan Testnet Website: https://kovan-testnet.github.io/website/\r\n        address Chainlink_Oracle_Alarm = 0xAA1DC356dc4B18f30C347798FD5379F3D77ABC5b;\r\n        bytes32 Chainlink_Alarm_JobId = \"982105d690504c5d9ce374d040c08654\";\r\n        \r\n        //Defines Entry Costs as .0025 ether (~8.75 USD as of 10/12/2021)\r\n        //This value can be changed to whatever entry costs are required\r\n        uint256 Minimum_requirement=.0025 ether;\r\n        \r\n        //Defines Gas/Transactional Fees to use Oracle Nodes(.1 LINK=0.00070023 Ether)\r\n        uint256 Payment_to_Oracle= 0.1 * 10 ** 18;\r\n        \r\n        //Defines lottery states as open, closed,or calculating\r\n        enum Lottery_state { Open, Closed, Calculating }\r\n    \r\n        //Displays the state of the lottery externally\r\n        Lottery_state public Lottery_Status;\r\n        \r\n        //displays interfaces \r\n        ChainlinkGovernance_Interface public governance;\r\n    \r\n        //Creates a list for Players to join\r\n        address payable[] public players;\r\n    \r\n        //Counts how many Lotteries have been played\r\n        uint256 public LotteryCount;\r\n    \r\n    \r\n    //Sets initial values for variables\r\n    constructor(address _governance) public\r\n    {\r\n        //Required to connect with Chainlink Oracles\r\n        setPublicChainlinkToken();\r\n    \r\n        //First Lottery\r\n        LotteryCount=1;\r\n    \r\n        //Sets Lottery State as Closed\r\n        Lottery_Status=Lottery_state.Closed;\r\n        \r\n        governance = ChainlinkGovernance_Interface(_governance);\r\n    }\r\n    \r\n    \r\n    //Function to check if lottery is open and also require payment before adding to Player list\r\n    function enter() public payable {\r\n        \r\n        //Requires Players to pay entry costs\r\n        assert(msg.value == Minimum_requirement);\r\n        \r\n        //Checks that Lottery is open\r\n        assert(Lottery_Status == Lottery_state.Open);\r\n        \r\n        //adds new player to the existing Player list\r\n        players.push(msg.sender);\r\n    }\r\n    \r\n    \r\n    //function to display total amount of players \r\n    function player_count()public view returns(address payable[] memory){\r\n        return players;\r\n    }\r\n    \r\n    \r\n    //function to display toal amount of earnings in a given Lottery\r\n    function Total() public view returns(uint256){\r\n        return address (this).balance;\r\n    }\r\n    \r\n    \r\n    //Private Function to pick winner randomly using Chainlink VRFs\r\n    function PickWinner() private {\r\n        \r\n        //Checks that Lottery is Calculating Winner\r\n        require(Lottery_Status==Lottery_state.Calculating);\r\n        \r\n        //Uses Chainlink VRF function in ChainlinkLotteryGovernance.sol to generate randomness\r\n        VRF_Random(governance.randomness()).getRandom(LotteryCount,LotteryCount);\r\n    }\r\n    \r\n    \r\n    //Function to stop player enteries and initiate the PickWinner() function\r\n    function fulfill_alarm(bytes32 _requestId)\r\n    \r\n        //Ensures that the request is valid and viewable externally \r\n        public  \r\n        recordChainlinkFulfillment(_requestId)\r\n            {\r\n                //Checks that Lottery is Calculating Winner   \r\n                require(Lottery_Status==Lottery_state.Open);\r\n                \r\n                //Changes Lottery Status to Calculating\r\n                Lottery_Status=Lottery_state.Calculating;\r\n                \r\n                //Increases the Completed Lottery Count by 1 \r\n                LotteryCount=LotteryCount + 1;\r\n                \r\n                //Initiates PickWinner() function\r\n                PickWinner();\r\n                \r\n            }\r\n     \r\n     \r\n    //Function to start new lottery and Ssend Alarm Request to Oracle       \r\n    function start_Lottery(uint256 duration) public {\r\n        \r\n        //Ensures previous lottery is closed\r\n        require(Lottery_Status==Lottery_state.Closed);\r\n        \r\n        //Starts new lottery\r\n        Lottery_Status=Lottery_state.Open;\r\n        \r\n        //Connects to Chainlink Alarm\r\n        Chainlink.Request memory req = buildChainlinkRequest(Chainlink_Alarm_JobId, address(this), this.fulfill_alarm.selector);\r\n        \r\n        //Returns fulfill_alarm function after now + duration amount of time\r\n        req.addUint(\"until\", now + duration);\r\n        \r\n        //Sends the Chainlink Request to The Chainlink Alarm, and sends associated Gas/Transactional fees)\r\n        sendChainlinkRequestTo(Chainlink_Oracle_Alarm,req,Payment_to_Oracle);\r\n    \r\n    \r\n    }\r\n    function fulfill_randomness(uint256 randomness) external{\r\n        //Checks that Lottery is Calculating Winner\r\n        require(Lottery_Status==Lottery_state.Calculating);\r\n        \r\n        //Checks that VRF randomness is completed\r\n        require(randomness>0);\r\n        \r\n        //converts the randomized number to a value from 0 to players.length in order to pick a winner\r\n        uint256 index=randomness%players.length;\r\n        \r\n        //transfer Total earnings of the lottery to the winning player\r\n        players[index].transfer(address(this).balance);\r\n        \r\n        //clears out player list\r\n        players = new address payable[](0);\r\n        \r\n        //closes lottery\r\n        Lottery_Status==Lottery_state.Closed;\r\n    }\r\n    \r\n    \r\n}",
  "sourcePath": "C:\\Users\\User\\Documents\\Solidity_Projects\\Chainlink_Project\\contracts\\ChainlinklLottery.sol",
  "compiler": {
    "name": "solc",
    "version": "0.6.6+commit.6c089d02.Emscripten.clang"
  },
  "schemaVersion": "3.4.3",
  "updatedAt": "2021-10-16T04:41:14.336Z",
  "devdoc": {
    "methods": {}
  },
  "userdoc": {
    "methods": {}
  }
}