{
  "contractName": "Random",
  "abi": [
    {
      "inputs": [
        {
          "internalType": "address",
          "name": "_governance",
          "type": "address"
        }
      ],
      "stateMutability": "nonpayable",
      "type": "constructor"
    },
    {
      "inputs": [],
      "name": "governance",
      "outputs": [
        {
          "internalType": "contract ChainlinkGovernance_Interface",
          "name": "",
          "type": "address"
        }
      ],
      "stateMutability": "view",
      "type": "function",
      "constant": true
    },
    {
      "inputs": [
        {
          "internalType": "bytes32",
          "name": "",
          "type": "bytes32"
        }
      ],
      "name": "nonces",
      "outputs": [
        {
          "internalType": "uint256",
          "name": "",
          "type": "uint256"
        }
      ],
      "stateMutability": "view",
      "type": "function",
      "constant": true
    },
    {
      "inputs": [
        {
          "internalType": "uint256",
          "name": "",
          "type": "uint256"
        }
      ],
      "name": "randomNumber",
      "outputs": [
        {
          "internalType": "uint256",
          "name": "",
          "type": "uint256"
        }
      ],
      "stateMutability": "view",
      "type": "function",
      "constant": true
    },
    {
      "inputs": [],
      "name": "recent",
      "outputs": [
        {
          "internalType": "uint256",
          "name": "",
          "type": "uint256"
        }
      ],
      "stateMutability": "view",
      "type": "function",
      "constant": true
    },
    {
      "inputs": [
        {
          "internalType": "bytes32",
          "name": "",
          "type": "bytes32"
        }
      ],
      "name": "requestIds",
      "outputs": [
        {
          "internalType": "uint256",
          "name": "",
          "type": "uint256"
        }
      ],
      "stateMutability": "view",
      "type": "function",
      "constant": true
    },
    {
      "inputs": [
        {
          "internalType": "bytes32",
          "name": "_keyHash",
          "type": "bytes32"
        },
        {
          "internalType": "uint256",
          "name": "_fee",
          "type": "uint256"
        },
        {
          "internalType": "uint256",
          "name": "_seed",
          "type": "uint256"
        }
      ],
      "name": "requestRandomness",
      "outputs": [
        {
          "internalType": "bytes32",
          "name": "requestId",
          "type": "bytes32"
        }
      ],
      "stateMutability": "nonpayable",
      "type": "function"
    },
    {
      "inputs": [
        {
          "internalType": "uint256",
          "name": "Seed",
          "type": "uint256"
        },
        {
          "internalType": "uint256",
          "name": "LotteryIdenitity",
          "type": "uint256"
        }
      ],
      "name": "getRandom",
      "outputs": [],
      "stateMutability": "nonpayable",
      "type": "function"
    },
    {
      "inputs": [
        {
          "internalType": "bytes32",
          "name": "requestId",
          "type": "bytes32"
        },
        {
          "internalType": "uint256",
          "name": "randomness",
          "type": "uint256"
        }
      ],
      "name": "fulfillRandomness",
      "outputs": [],
      "stateMutability": "nonpayable",
      "type": "function"
    }
  ],
  "bytecode": "0x608060405234801561001057600080fd5b50604051610aab380380610aab8339818101604052602081101561003357600080fd5b810190808051906020019092919050505073f720cf1b963e0e7be9f58fd471efa67e7bf00cfb7320fe562d797a42dcb3399062ae9546cd06f6328081600160006101000a81548173ffffffffffffffffffffffffffffffffffffffff021916908373ffffffffffffffffffffffffffffffffffffffff160217905550806000806101000a81548173ffffffffffffffffffffffffffffffffffffffff021916908373ffffffffffffffffffffffffffffffffffffffff16021790555050507fced103054e349b8dfb51352f0f8fa9b5d20dde3d06f9f43cb2b85bc64b23820560001b60038190555067016345785d8a000060048190555080600760006101000a81548173ffffffffffffffffffffffffffffffffffffffff021916908373ffffffffffffffffffffffffffffffffffffffff160217905550506109308061017b6000396000f3fe608060405234801561001057600080fd5b50600436106100885760003560e01c80639e317f121161005b5780639e317f1214610189578063bb4db8c0146101cb578063dc6cfe10146101e9578063f970dd021461023f57610088565b80631f1f897f1461008d5780635aa6e675146100c5578063655b08eb1461010f5780638645f7a814610147575b600080fd5b6100c3600480360360408110156100a357600080fd5b810190808035906020019092919080359060200190929190505050610281565b005b6100cd610424565b604051808273ffffffffffffffffffffffffffffffffffffffff1673ffffffffffffffffffffffffffffffffffffffff16815260200191505060405180910390f35b6101456004803603604081101561012557600080fd5b81019080803590602001909291908035906020019092919050505061044a565b005b6101736004803603602081101561015d57600080fd5b8101908080359060200190929190505050610560565b6040518082815260200191505060405180910390f35b6101b56004803603602081101561019f57600080fd5b8101908080359060200190929190505050610578565b6040518082815260200191505060405180910390f35b6101d3610590565b6040518082815260200191505060405180910390f35b610229600480360360608110156101ff57600080fd5b81019080803590602001909291908035906020019092919080359060200190929190505050610596565b6040518082815260200191505060405180910390f35b61026b6004803603602081101561025557600080fd5b81019080803590602001909291905050506107a7565b6040518082815260200191505060405180910390f35b600160009054906101000a900473ffffffffffffffffffffffffffffffffffffffff1673ffffffffffffffffffffffffffffffffffffffff163373ffffffffffffffffffffffffffffffffffffffff16146102db57600080fd5b80600881905550600060066000848152602001908152602001600020549050816005600083815260200190815260200160002081905550600760009054906101000a900473ffffffffffffffffffffffffffffffffffffffff1673ffffffffffffffffffffffffffffffffffffffff1663ba13a5726040518163ffffffff1660e01b815260040160206040518083038186803b15801561037a57600080fd5b505afa15801561038e573d6000803e3d6000fd5b505050506040513d60208110156103a457600080fd5b810190808051906020019092919050505073ffffffffffffffffffffffffffffffffffffffff1663c251ebf2836040518263ffffffff1660e01b815260040180828152602001915050600060405180830381600087803b15801561040757600080fd5b505af115801561041b573d6000803e3d6000fd5b50505050505050565b600760009054906101000a900473ffffffffffffffffffffffffffffffffffffffff1681565b6004546000809054906101000a900473ffffffffffffffffffffffffffffffffffffffff1673ffffffffffffffffffffffffffffffffffffffff166370a08231306040518263ffffffff1660e01b8152600401808273ffffffffffffffffffffffffffffffffffffffff1673ffffffffffffffffffffffffffffffffffffffff16815260200191505060206040518083038186803b1580156104eb57600080fd5b505afa1580156104ff573d6000803e3d6000fd5b505050506040513d602081101561051557600080fd5b81019080805190602001909291905050501161053057600080fd5b600061054160035460045485610596565b9050816006600083815260200190815260200160002081905550505050565b60066020528060005260406000206000915090505481565b60026020528060005260406000206000915090505481565b60085481565b60008060009054906101000a900473ffffffffffffffffffffffffffffffffffffffff1673ffffffffffffffffffffffffffffffffffffffff16634000aea0600160009054906101000a900473ffffffffffffffffffffffffffffffffffffffff1685878660405160200180838152602001828152602001925050506040516020818303038152906040526040518463ffffffff1660e01b8152600401808473ffffffffffffffffffffffffffffffffffffffff1673ffffffffffffffffffffffffffffffffffffffff16815260200183815260200180602001828103825283818151815260200191508051906020019080838360005b838110156106a857808201518184015260208101905061068d565b50505050905090810190601f1680156106d55780820380516001836020036101000a031916815260200191505b50945050505050602060405180830381600087803b1580156106f657600080fd5b505af115801561070a573d6000803e3d6000fd5b505050506040513d602081101561072057600080fd5b8101908080519060200190929190505050506000610753858430600260008a8152602001908152602001600020546107bf565b905061077c6001600260008881526020019081526020016000205461083990919063ffffffff16565b600260008781526020019081526020016000208190555061079d85826108c1565b9150509392505050565b60056020528060005260406000206000915090505481565b600084848484604051602001808581526020018481526020018373ffffffffffffffffffffffffffffffffffffffff1673ffffffffffffffffffffffffffffffffffffffff1681526020018281526020019450505050506040516020818303038152906040528051906020012060001c9050949350505050565b6000808284019050838110156108b7576040517f08c379a000000000000000000000000000000000000000000000000000000000815260040180806020018281038252601b8152602001807f536166654d6174683a206164646974696f6e206f766572666c6f77000000000081525060200191505060405180910390fd5b8091505092915050565b6000828260405160200180838152602001828152602001925050506040516020818303038152906040528051906020012090509291505056fea2646970667358221220831cf47e9fb28c5b2837277a630afab62603aa149f8291cd6a08d75f570b33e464736f6c63430006060033",
  "immutableReferences": {},
  "source": "//This is for Educational Purposes Only\r\npragma solidity 0.6.6;\r\n\r\n//VRF Github\r\nimport \"@chainlink/contracts/src/v0.6/VRFConsumerBase.sol\";\r\n\r\n//Import ChainlinkLottery_Interface.sol and ChainlinkGovernance_Interface.sol\r\nimport {get_Lottery} from \"./Interfaces/ChainlinkLottery_Interface.sol\";\r\nimport {ChainlinkGovernance_Interface} from \"./Interfaces/ChainlinkGovernance_Interface.sol\";\r\n\r\n//Random contract inherits from the VRFConsumerBase contract\r\ncontract Random is VRFConsumerBase{\r\n    \r\n    //Creates internal hash variable\r\n    bytes32 internal hash;\r\n    \r\n    //Creates internal fees variable\r\n    uint256 internal fees;\r\n    \r\n    //Creates hash map for random number assignment\r\n    mapping (uint=>uint) public randomNumber;\r\n    \r\n    //Creates hash map for requestIds\r\n    mapping (bytes32 => uint) public requestIds;\r\n    \r\n    //Displays interfaces \r\n    ChainlinkGovernance_Interface public governance;\r\n    \r\n    //Creates variable to store the most recent random number generated\r\n    uint256 public recent; \r\n    \r\n    //Ropsten test-net allows for test development using ETH\r\n\r\n     constructor(address _governance)\r\n     //VRFs are used to generate random numbers\r\n        VRFConsumerBase(\r\n            0xf720CF1B963e0e7bE9F58fd471EFa67e7bF00cfb, // Ropsten VRF Coordinator\r\n            0x20fE562d797A42Dcb3399062AE9546cd06f63280  // Ropsten LINK Token\r\n        ) public\r\n    {\r\n        hash = 0xced103054e349b8dfb51352f0f8fa9b5d20dde3d06f9f43cb2b85bc64b238205;\r\n        fees = 0.1 * 10 ** 18; // 0.1 LINK\r\n        governance = ChainlinkGovernance_Interface(_governance);\r\n    }\r\n\r\n    function getRandom(uint256 Seed, uint256 LotteryIdenitity) public {\r\n        //Makes sure that enough LINK is there to cover fees\r\n        require(LINK.balanceOf(address(this)) > fees);\r\n        \r\n        //creates random number using given hash, associated fees, and User-assigned Seed Value\r\n        bytes32 _requestId=requestRandomness(hash,fees,Seed);\r\n        \r\n        //assigns random value to LotteryIdenitity based on VRF and requestIds Hash map\r\n        requestIds[_requestId]=LotteryIdenitity;\r\n    }\r\n    function fulfillRandomness(bytes32 requestId, uint256 randomness) external override {\r\n        //ensures VRF coordinator is the one fufilling the function\r\n        require(msg.sender == vrfCoordinator);\r\n        \r\n        //assigns variable the most recent random number\r\n        recent = randomness;\r\n        \r\n        //reassigns LotteryIdenitity\r\n        uint LotteryIdenitity = requestIds[requestId];\r\n        \r\n        //randomizes numbers\r\n        randomNumber[LotteryIdenitity] = randomness;\r\n        get_Lottery(governance.lottery()).fulfill_random(randomness);\r\n    }\r\n}",
  "sourcePath": "C:\\Users\\User\\Documents\\Solidity_Projects\\Chainlink_Project\\contracts\\ChainlinklLotteryRandomVRF.sol",
  "compiler": {
    "name": "solc",
    "version": "0.6.6+commit.6c089d02.Emscripten.clang"
  },
  "schemaVersion": "3.4.3",
  "updatedAt": "2021-10-17T02:45:50.063Z",
  "networkType": "ethereum",
  "devdoc": {
    "methods": {
      "requestRandomness(bytes32,uint256,uint256)": {
        "details": "The source of the seed data must be something which the oraclecannot anticipate. See \"SECURITY CONSIDERATIONS\" above.The fulfillRandomness method receives the output, once it's providedby the Oracle, and verified by the vrfCoordinator.The _keyHash must already be registered with the VRFCoordinator, andthe _fee must exceed the fee specified during registration of the_keyHash.The returned requestId can be used to distinguish responses to *concurrent requests. It is passed as the first argument tofulfillRandomness.",
        "params": {
          "_fee": "The amount of LINK to send with the request",
          "_keyHash": "ID of public key against which randomness is generated",
          "_seed": "Random seed from which output randomness is determined"
        },
        "returns": {
          "requestId": "which will be returned with the response to this request"
        }
      }
    }
  },
  "userdoc": {
    "methods": {
      "requestRandomness(bytes32,uint256,uint256)": {
        "notice": "requestRandomness initiates a request for VRF output given _seed"
      }
    }
  }
}